:020000040001F9
:10B00000C8320020D5B00100EFB00100F1B001005E
:10B010000000000000000000000000000000000030
:10B02000000000000000000000000000F3B001007C
:10B030000000000000000000F5B00100F7B00100C2
:10B04000D5B30100F9B0010011B50100F9B001005C
:10B05000F9B001000000000019B20100F9B00100D0
:10B06000F9B00100F9B00100F9B00100F9B0010038
:10B07000F9B00100F9B00100F9B00100F9B0010028
:10B08000F9B0010029B40100F9B00100F9B00100E4
:10B0900049B40100F9B0010051B40100F9B0010058
:10B0A000F9B00100F9B0010000000000000000004C
:10B0B0000000000000000000000000000000000090
:10B0C0000348854600F06AF8004800475DE5010046
:10B0D000C83200200321094802680A430260084878
:10B0E00002680A4302600748804707480047FEE7B6
:10B0F000FEE7FEE7FEE7FEE7FEE70000240500406E
:10B100005405004071B40100C1B0010030B50B46D8
:10B11000014600202022012409E00D46D5409D4231
:10B1200005D31D469540491B2546954040191546B7
:10B13000521E002DF1DC30BD03460B439B0703D0AC
:10B1400009E008C9121F08C0042AFAD203E00B78EC
:10B150000370401C491C521EF9D27047D2B201E064
:10B160000270401C491EFBD270470022F6E710B562
:10B1700013460A4604461946FFF7F0FF204610BD65
:10B1800030B504460020034600E05B1C934203D226
:10B19000E05CCD5C401BF8D030BD0000064C0125C2
:10B1A000064E05E0E36807CC2B430C3C984710346F
:10B1B000B442F7D3FFF788FF0819020028190200EC
:10B1C00070B58C180578401C6B075B0F01D10378B4
:10B1D000401C2A1106D10278401C03E006780E704C
:10B1E000401C491C5B1EF9D12B0705D40023521EBD
:10B1F0000DD40B70491CFAE70378401CCB1A921C43
:10B2000003E01D780D70491C5B1C521EF9D5A1424C
:10B21000D8D3002070BD0000F0B50024FF268BB00D
:10B220000136012527460694304603F0F9FC002834
:10B2300007D054484068284203D0304603F0E8FC69
:10B240002C43361D6D007F1CB6B2042FECD3FF25B6
:10B250007D35284603F0E4FC002809D0284603F099
:10B26000D7FC6807044306AA0121002003F0BCFCB8
:10B27000454D200714D00127002627420CD0434813
:10B28000B200111808690969C004C00E8903AA58E0
:10B29000890F002A00D090477F00761C042EECD343
:10B2A000002C6DDA00200890401E63E02819403021
:10B2B0000778B906890E009100214156491C49D0F2
:10B2C00009A9009803F0BEFA002843D0B8090190FC
:10B2D000009801F0D5FA80002F580198002F02D075
:10B2E000032802D00DE0032834D1009808ABC2082F
:10B2F00041079446985C490F01228A4010436246F8
:10B300009854009805210907800040180721090278
:10B310004018006806A98003800F0290009803F08F
:10B3200091FA0028029802D0022802D012E00328E5
:10B3300010D10198032808D1029802281ED00221BA
:10B34000009803F034FC761CF6B2002F02D001996D
:10B350000098B847641C042CA8D3002E10D06A466D
:10B360000121002003F040FC06990098884207D094
:10B370000690089800263446099097E70321DFE7F6
:10B380000BB0F0BD00630040C02800200065004005
:10B390008307FF22DB0E9A408907090E9940002897
:10B3A0000BDA0007000F0838830808489B001818BC
:10B3B000C36993430B43C3617047830804489B00F0
:10B3C0001B181868904308431860704700ED00E0B0
:10B3D00000E400E0F8B5FF20013003F03BFA002460
:10B3E00001250E4E0E4F002807D00E4804600120A4
:10B3F000B0607D70002001F085FAFF20053003F079
:10B4000029FA002808D00748001D04600220B06017
:10B41000BD70012001F076FAF8BD00000003004085
:10B42000AC2800200001004010B50649002008604B
:10B4300048608860C860034940390860486005F08A
:10B440009DFE10BD4011014010B505F009FE10BD74
:10B4500010B506484068002805D08047002801D074
:10B4600000F03EFA10BD02F01DFD10BD10210020BD
:10B4700010B502F065FD002805D01F491D48486041
:10B48000C8131E4988611E48018CC9B201290BD11D
:10B49000828C120708D1028D1206120F042A03D1E2
:10B4A000828D1206120F0AD0012921D1818C090741
:10B4B0001ED1018D0906090F0A2904D007E0114A9F
:10B4C00001219160F5E7828D1206120F05D00D293A
:10B4D0000ED1808D0006000F0AD10B4801680129AA
:10B4E00004D00A49016001680129FCD1C0214161F1
:10B4F00010BD0000DFFF07C000050040006C0040E9
:10B50000C00F00F00006004000EC064075930000FC
:10B5100010B50249024805F08CFE10BD0829002034
:10B520000020004030B47446641E2578641CAB4291
:10B5300000D21D46635D5B00E31830BC184702E093
:10B5400008C8121F08C1002AFAD1704770470020AE
:10B5500001E001C1121F002AFBD17047202804DA44
:10B56000012181400348014201D0012070470020A1
:10B5700070470000FC06FFBC10B500280CD0002965
:10B580000AD002780B789A4206D10622401C491C48
:10B59000FFF7F6FD002801D0002010BD012010BDEE
:10B5A000F7B584B006460025178815802030029034
:10B5B000407B1446002806D03A462146059800F004
:10B5C000FFFD050009D1B078002823D005988646F4
:10B5D0002088001DB84202D90C2007B0F0BD684693
:10B5E00079DF0028F9D12188032072465054208841
:10B5F0001921401C80B22080115420887146401CC3
:10B6000080B2208041186846008805F0A6FE218897
:10B6100040182080F078002817D0218803230A469C
:10B62000F356C91C0598B942D6D802218154218805
:10B630000122491C89B2218042542188491C89B2C7
:10B64000218043542088401C20807068002817D037
:10B6500021880023C3560A46C91C0598B942BBD8A5
:10B660000221815421880A22491C89B22180425436
:10B670002188491C89B2218043542088401C2080A5
:10B68000308900280AD00094304601970622022112
:10B690000830059B05F0BAFE05009ED1308A0028CF
:10B6A0000AD0009430460197072203211030059BF1
:10B6B00005F0ACFE050090D1308B00280AD0009434
:10B6C00030460197152214211830059B05F09EFE87
:10B6D000050082D1306A002806D03B4622460599F3
:10B6E00001F078F90500D8D1706A002806D03B46F1
:10B6F0002246059902F0DAFF0500CED10298007BC0
:10B70000002807D03B4622463046059905F048F907
:10B710000500C2D13078002807D03B46224630468B
:10B72000059902F0F7FF0500B7D1284655E700005C
:10B73000174A0021535C002B01D0012203E0491C71
:10B740000629F7D300221349012806D002280BD07E
:10B75000032810D0042818D112E04878002803D01C
:10B76000002A01D0012070478878002803D0002AE1
:10B7700001D002207047C878002801D0032070470C
:10B780000879002801D0042070470020704700008D
:10B79000252000206422002010B501220221002073
:10B7A00000F0F0FE002801D0072812D10722022164
:10B7B000012000F0E7FE002801D0072809D1002170
:10B7C0000A22084600F0DEFE002801D0072800D13A
:10B7D000002010BDF0B50F468DB0002116466D4615
:10B7E0000F24621A825C6A54491C1029F9D3284636
:10B7F0000D211030FFF7B9FC0020221A395C5219D4
:10B80000401C11740328F8D368464DDF0020211A2C
:10B810004919203109783154401C0328F7D30DB061
:10B82000F0BD10B5022000F063FD10BD70B500241E
:10B83000064D06E06968E000085C012103F09EF80F
:10B84000641C28788442F5D3002070BDB420002009
:10B85000F8B515460C460646052A01D20720F8BD64
:10B8600003F064F9002803D103F032F90028F6D17F
:10B87000104900204E600C70C8608D6008610E4D4C
:10B880000DE0E00069688019009181786A46517086
:10B8900000780A4A694603F0BDF80028DFD1204647
:10B8A000641EE4B20028ECD1054A0021024800F0F1
:10B8B00023F8F8BDB4200020EC18020095D8010050
:10B8C00059CB0100BFF34F8F04490348C860BFF351
:10B8D0004F8F00BFFDE700000400FA0500ED00E017
:10B8E0000EB50021029000916A4601910148FFF7D0
:10B8F000E9FF0EBD01400000094B5B68002B07D03B
:10B90000002A07D0002805D00068037C002B03D054
:10B91000082070470720704741744261002070473B
:10B92000D8200020FFB507469007002581B01E46AD
:10B930001446002825D1002C23D004F0A9FD304660
:10B94000114EF060304610300570457002998170DC
:10B9500044607560357001240C48757024050460DE
:10B9600003211420FFF714FD09480460094CA76067
:10B9700003211120FFF70CFD6068B060002005B0C6
:10B98000F0BD0720FBE70000C820002080E200E0B7
:10B9900000E100E000150140FEB51F4B5B68002B85
:10B9A00030D000282ED0052901D20720FEBD4369E2
:10B9B000002B27D0437C012B26D000270291044680
:10B9C0000025694616460D70684600F03DF801A84E
:10B9D00005F006FD002819D0012101700F494460CF
:10B9E00049688160029907614661C16068460A49F9
:10B9F000007948706846007800F044F805F072FB62
:10BA00002846FEBD0820FEBD0F46D7E76846042540
:10BA1000007800F037F8F3E7D82000200015014047
:10BA200010B50849496800290AD0002808D04169A2
:10BA3000002905D000210174022105F07BFB10BD17
:10BA4000082010BDD820002030B5EFF3108172B669
:10BA5000094A54680123002C04D00370002900D146
:10BA600062B630BD5360054B1D68054C254015601E
:10BA70001C6000220270F1E7EC20002080E100E071
:10BA8000FC06FFBC08494A68002A0CD000280AD1ED
:10BA9000EFF3108072B60A68044B1A6000224A6005
:10BAA000002800D162B67047EC20002000E100E0E1
:10BAB000F0B504468BB0008800F01EFB059020888E
:10BAC00002F05EF90646A0680090657A6846057443
:10BAD0001E4F20880022397800F05EFB0598002870
:10BAE00031D06079400710D50721304603F04EFC75
:10BAF000002813D0082269460A7422884A828E825E
:10BB0000069004A801F018F908E02088B97800F040
:10BB100031FB002802D0304602F01CF903216846B0
:10BB200001712188C18060794007C10F68460172A8
:10BB3000A0794007C10F6846417201788172C572D1
:10BB400001A801F0F9F80BB0F0BD0000982000202A
:10BB5000F0B50C4693B01F216A46118007260027D6
:10BB60009180002809D0C17849070DD502A9FFF7B7
:10BB700017FD002809D102AD01E000251780002C37
:10BB80000ED0E078002802D0304613B0F0BD01AAF4
:10BB90000AA92046FFF704FD0028F6D10AAA02E010
:10BBA00068460022878068468088C3B2684600885D
:10BBB000C1B2284672DFE8E7FFB581B01E460A9F92
:10BBC0001346040047D0002B45D0504D012028706B
:10BBD0000020E870202219464D48FFF7ADFA0020FA
:10BBE0006F61C0432E612881284607211830FFF776
:10BBF000BCFA47483C212030FFF7B7FA4448217887
:10BC000020300170A1788170E178C1706178417055
:10BC10003F4A656923695563114613632031E36820
:10BC2000A268CB608A603A49E369A269CB638A6300
:10BC3000616A00291AD001463C310246483241620D
:10BC40008A60636A1B880B80616A436A898899806D
:10BC50000021436A07E00E2005B0F0BD656AAD68BB
:10BC60006D5C5554491C9D888D42F7D8A16A002906
:10BC70001CD0274A943211460C398A608162A36A2B
:10BC80009B888B80A16A836A098819800021836A56
:10BC900004E0A56AAD686D5C5554491C9D888D42D1
:10BCA000F7D82C210A5D1A4940310A73216A00290C
:10BCB00009D016490A310162226A52884A80216AF3
:10BCC000026A098811806168002900D04160104A29
:10BCD0000E490020B3322031C3001B1A85009B1887
:10BCE0000C68401C63510828F6DB094A0020EB323F
:10BCF000030185009B188C68401C63510828F7DB02
:10BD0000034802992030FFF723FFA5E70C2000200D
:10BD10006422002010B50188134C102915D0112978
:10BD200019D01B2910D1007A00280DD1E078052107
:10BD3000401CFFF7EBF9084600F04EF8002803D04E
:10BD40006169002900D0884710BD817D0129FBD1A0
:10BD50008088208110BD00216171808821898842FE
:10BD6000F8D10120E8E700000C20002010B50228DF
:10BD700001D003280ED1084C607800280AD000209A
:10BD80006070E07800F028F8002803D0616900298D
:10BD900000D0884710BD00000C20002010B574DFD3
:10BDA0000B4C012060710B490620C8700021094826
:10BDB000FFF7CEFE002809D1E07800F00DF800284A
:10BDC00003D06169002900D08847002010BD000021
:10BDD0000C20002084220020F1B53F4C88B0207850
:10BDE00000280AD00898E07006A801F09FFA06988B
:10BDF0000125002804D065706AE0082009B0F0BD74
:10BE00003548002707211830FFF7AFF9334E707817
:10BE1000002802D0E078012807D0B07800280CD0A4
:10BE2000E078012801D0022807D12169002903D038
:10BE300025710820884700E027710898FFF778FCF3
:10BE4000E0702169002909D0032801D0042805D118
:10BE50003078002802D06079002811D0A77118210D
:10BE60006846FFF782F9684607700772E1781A485A
:10BE70000B001830FFF756FB052E080F191D200088
:10BE8000A57107208847EAE7A5700190684605700C
:10BE90004782078213E00221A17001906846057075
:10BEA000B18941823189018209E0684604F0C0FD10
:10BEB00002E0684604F0E8FDE078002803D0684618
:10BEC00073DF00289AD12169002901D0A078884722
:10BED000002093E7A770F6E70C20002064220020E2
:10BEE00070B5054601461C220E48FFF725F90E4C99
:10BEF000002626702968002906D00822201DFFF799
:10BF00001BF9201D7ADF02E00748001D7BDF0028B7
:10BF100007D1401E60806670044A00210448FFF784
:10BF2000EBFC70BD302400203C2000206513020093
:10BF300064180200F8B5214C0146028800261E480C
:10BF4000E589102A13D01E4F112A1FD0122A2BD098
:10BF5000502A1AD1881DC988A94216D141890229BF
:10BF600013D10C3000F06FF900280CD112E08A8850
:10BF700004464280104808220C301831FFF7DCF8E4
:10BF80006670002D01D100F06DFDF8BD0021C943A0
:10BF9000418046703868FFF743FD0028F5D0A1695D
:10BFA0000029F2D08847F8BD034808220C30083138
:10BFB000FFF7C2F8E7E700003C2000203024002013
:10BFC0006418020010B503490A7D091D04F035FB11
:10BFD00010BD00004C240020034B10B50246D97D53
:10BFE000181D04F017FB10BD4C240020034B10B5A6
:10BFF0000246197E181D04F00DFB10BD4C240020D4
:10C00000F0B5044602883A488DB0014615310191D9
:10C01000102A09D0112A50D01A2A4AD1217A0909A6
:10C0200001294ED901234DE0027D417D05468A4319
:10C03000011D07A804F001FB142207A902A8FFF7BD
:10C040007BF800262A483746143008900AE0710031
:10C0500002A8081883881D220097281D089904F05B
:10C0600099FA761C0298B042F1D8287DA688C04380
:10C07000C0B204F0B3FA1F49884217D040004019FB
:10C08000868001233246281D019904F0F9FA012324
:10C090003246281D089904F0F3FAA07D02280AD040
:10C0A00000231349A2881631281D1DE00420FFF744
:10C0B00017FC0DB0F0BD0123F3E70023A288001D9B
:10C0C00012E000230A490546A2881731001D04F03A
:10C0D000D7FA207A0009022801D9012300E00023C1
:10C0E0000349A2881831281D04F0CAFAE1E70000CC
:10C0F0004C240020FFFF000070B50B4E05460024C5
:10C10000317D2A46301D04F085FA002809D0B17D22
:10C110002A46301D04F07EFA002801D0022400E0F7
:10C120000124204670BD00004C24002010B50024DE
:10C13000204605F049F9002805D0641CE4B2182C0B
:10C14000F6D3182010BD044801220168A240114313
:10C150000160204610BD00004C24002010B50446AC
:10C1600005F032F9002802D001480019407E10BDC8
:10C170004C24002070B505460C46084605F024F90D
:10C18000002806D003482A460119497E001D04F004
:10C1900041FA70BD4C24002070B5064615460C4689
:10C1A000084605F011F9002807D004482B4601196C
:10C1B0003246001D193104F063FA70BD4C24002092
:10C1C0007CB5054608880C460930904201D90C2000
:10C1D0007CBD684671DF0028FAD1218808206854A8
:10C1E00020881B21401C80B220802954208800A96F
:10C1F000401C80B22080401906220131FEF79CFFCE
:10C2000020886946801D80B220800978002900D0EE
:10C21000012129542088401C208000207CBD10B5BD
:10C220000446FFF7EDFE204603F08CFD2046FFF7A5
:10C2300081FE204600F0E8F8204602F019FD204675
:10C24000FFF768FD10BD4178027808021043C0076F
:10C25000C00F704700B5174887B0006805900023ED
:10C260004822154905A804F0B7FE002801D0FFF7C1
:10C2700037FB6A460121002004F096FE002801D019
:10C28000FFF72EFB684604F085FE002801D0FFF77B
:10C2900027FB0A4804F074FE002801D0FFF720FBBA
:10C2A000074804F0CBFE002801D0FFF719FB07B0C8
:10C2B00000BD00002C180200B02100201FC20100A8
:10C2C000511002000149085C704700003418020058
:10C2D0000549095C05480069C840C007C00F00D087
:10C2E0000120012148407047341802000005005029
:10C2F00005490B5C05494A68012098400346934371
:10C300008B601040C8607047301802000005005074
:10C3100010B50349085C012102F05AFC10BD000071
:10C320003018020010B50349085C002102F050FCEF
:10C3300010BD0000301802000549095C054840683E
:10C34000C840C007C00F00D00120012148407047FD
:10C3500030180200000500507CB50024074E254629
:10C36000305D0122009500231146019502F0E6FBA5
:10C37000641C042CF4D300F003F87CBD30180200D8
:10C3800010B500242046FFF7C3FF641C042CF9D32A
:10C3900010BD10B500242046FFF7C4FF641C042C18
:10C3A000F9D310BD0246002010B5C043054B002153
:10C3B0005C5C944201D1084610BD491C0429F7D3A6
:10C3C00010BD00003418020070B50E4E00250C465A
:10C3D000306000290DD0012000F0AEF8002801D017
:10C3E000022005E0002000F0A7F8002800D00B2074
:10C3F00020707068002802D1FFF7CEF90546284664
:10C4000070BD00000420002010B51C4C018860683D
:10C4100010290DD011290AD1401E606007D1FFF705
:10C42000BBF9002803D02168002900D0884710BD3F
:10C4300000281ED100210122084600F0A3F80028A0
:10C4400001D0072811D107220221012000F09AF81B
:10C45000002801D0072808D104220221002000F082
:10C4600091F8002805D0072803D02168002900D0C2
:10C4700088476068401C606010BD000004200020F8
:10C4800010B5002000F0BCF9002801D0062807D123
:10C49000012000F0B5F9002801D0062800D10020C5
:10C4A00010BD0000F3B581B00D460198FFF77AFF8B
:10C4B0000446042813D21D481D4F1E4E002D27D0C0
:10C4C000012D0DD0022D0AD160002018C019457829
:10C4D000002D04D0F168002901D028468847FEBD10
:10C4E000610061187D5CCF19797800290BD07168E3
:10C4F0000A2251430F4A8068921CFFF74DFA002828
:10C5000001D10198B0700B48B97810300155DFE7C0
:10C510008068FFF785FA0748610061181030C91973
:10C52000005D8D78A842D3D0FEBD0000381802000F
:10C5300038220020F01F002010B5FFF7C9FE10BD03
:10C54000014610B50D480429008806D007290CD0F3
:10C550000A2901D104F0C2FA10BD132176DF09E0E7
:10C560000028F9D0FFF7BCF910BD05498842FBD17E
:10C57000FFF714FC0828F3D110BD0000E81F0020CD
:10C58000FFFF000070B50023042811D244000419F5
:10C590000D4D012A02D101290DD00022460080193B
:10C5A000094E801900290CD0012906D0022906D095
:10C5B0000723184670BD0E30C2B22A55F9E7427003
:10C5C000F7E78270F5E700003822002010B5054A31
:10C5D0000146127A0020D20702D0084600F050F837
:10C5E00010BD0000F01F0020F8B506461F480024CB
:10C5F0008660C26041600F46B00720D50025012249
:10C6000011462846FFF7BEFF6D1C0446042D02D2DA
:10C61000002CF4D013E0002C11D17A080421144826
:10C62000FFF716F904000AD1FFF700F9040006D15C
:10C630000F48104A0021001FFFF75EF90446F0077B
:10C6400001D0FFF789FE002C0ED109480A4A0021CB
:10C650000C38FFF751F9040006D10548074A0121BB
:10C660000838FFF749F904462046F8BDF01F0020BE
:10C670004418020011C80100ADDF010023B8010019
:10C68000F8B55D4C054660780026002803D00020F0
:10C690006070FFF775FE0120584F2B00FEF742FF38
:10C6A00018970D0D2E3D4A5F64686F686FA9777704
:10C6B000777777979A9DA0A9A9950020FFF73CFE70
:10C6C00000280AD00020FFF723FE022D02D1E1202E
:10C6D000C0000BE07D20400108E00020FFF722FEB3
:10C6E000022D01D1C82001E0FF2091302570642186
:10C6F000FEF70CFD6168414300222BE00020FFF7AC
:10C700001BFE002805D00020FFF702FE1920400183
:10C71000ECE70020FFF706FEE4E70020FFF70CFE41
:10C72000002803D00020FFF7F3FDD3E70020FFF738
:10C73000F9FDD9E70020FFF7FFFD002803D0002016
:10C74000FFF7E6FD02E00020FFF7ECFD25706068D2
:10C75000410000223868FFF71FF9064635E0002047
:10C76000FFF7C6FD257007E000203FE025702CE0B4
:10C7700060700120FFF7BCFD00226168EAE760708D
:10C780000120FFF7B5FD606881004118E1E7786896
:10C79000FFF746F906461120401B01D0002E03D0BA
:10C7A0000220FFF7B5FD10E001280BD9C82148434E
:10C7B0006421FEF7ABFC6168002241437868FFF713
:10C7C000EBF806460220FFF7ADFD3046F8BDFFF757
:10C7D000D7FDCBE7FFF7D4FDC6E7FFF7D1FD04E0B7
:10C7E000FFF7CEFD0020FFF79DFD0120FFF79AFD2A
:10C7F000BCE7FFF7CEFDB9E7F01F002038180200B4
:10C8000010B5FFF75FFD032102F0C0F9002010BD55
:10C8100010B500780221FFF745FE10BD0022D2437B
:10C82000830004490428CA5002D308182030027734
:10C8300070470000C0280020F0B50025ED43002A15
:10C8400002D00023042601E0042308260B4C04E058
:10C850009F00E7597F1C04D05B1CB342F8D32846E5
:10C86000F0BD26185DB2203635709E00A151002A19
:10C87000F5D1E11820310877F1E70000C028002049
:10C88000024909182020085670470000C0280020DF
:10C89000002807D00449814204D80449814201D9C3
:10C8A00001207047002070472821002038210020F7
:10C8B000044A0168914201D0083101E00149383948
:10C8C00001607047202A002070B50D4D04460A46CD
:10C8D0002846AC4208D1FF2401342146104603F01B
:10C8E000EFF9A0420AD070BDFF2CFCD821461046BB
:10C8F00003F0D8F9002801D0204670BD284670BD4D
:10C90000FFFF000070B5084C050009D01034216805
:10C91000002907D008682060496828468847F6E75C
:10C920000834F4E770BD0000AC280020F8B52348B7
:10C93000416800293ED00E6821494C68876880789C
:10C94000E11B0D022D0AED1C002814D101201D4A07
:10C95000000450601B4A403A50601B494000086088
:10C960001A4908601A49012008602F2001F07AFF57
:10C97000124901208870B54200D23546E8190002FC
:10C980000F4B000A403318600D4A5168001B091B09
:10C990000902090A0002000AC91C814209D950682B
:10C9A00018602F2001F05EFF012007494004803904
:10C9B0000860F8BD03F06CFDF8BD0000C820002041
:10C9C000001501404013014080E200E000E100E07A
:10C9D00000100140F8B50646108814468446801DB4
:10C9E0000D46984201D90C20F8BD32880720062A4E
:10C9F000FAD31927FF01184BBA4201D99A42F3D151
:10CA000071880629F0D3B94201D99942ECD19A42F2
:10CA100003D0994201D08A42E6D8052160462954C4
:10CA200020881221401C80B2208029542088401C7C
:10CA300080B220804119308804F08FFC2188401892
:10CA400080B220804119708804F087FC218840184A
:10CA500020800020F8BD0000FFFF000010B5FEF7A9
:10CA60003FFF10BDF8B5164801F05CFA144D0026E2
:10CA70000C3D144C002807D0616900291CD001200E
:10CA80006A461070684616E02878002805D061696B
:10CA9000002911D0684606700DE0687800280DD096
:10CAA000A168094800220068FEF776FF002803D03D
:10CAB000A169002900D088472E70F8BD6168F0E7B1
:10CAC0004820002030240020641802007FB50C4666
:10CAD000002802D0012004B070BD20790026002873
:10CAE00006D01B4D01281CD0022828D00F20F2E7C9
:10CAF00002960396E0680190694601A803F0E8FBFE
:10CB000000280AD002988188E18000882081694647
:10CB10000988029803F056FC00E00A2002212171E6
:10CB2000D9E70C4B6A460021A01D03F08FFB0028BB
:10CB300007D0084908398E60CE600A28CBD1284634
:10CB4000C9E704488188019803F03CFCF5E7000040
:10CB50001D1D0000FC200020F8B500260124154D05
:10CB600023E06968F0004718387821462A69814037
:10CB7000114218D08A432A6101F0A0FF3A78214679
:10CB8000EB68914019400346934099420BD1797864
:10CB9000012901D0012100E000217B684140002BE8
:10CBA00001D010469847761CF6B228788642D8D332
:10CBB000F8BD0000B420002010B50E4900230A780B
:10CBC0004C78A24212D0521CD2B20A70022A00D172
:10CBD0000B700A78074B920018339A5802608868E5
:10CBE00010180002000A8860012010BD03600020B8
:10CBF00010BD0000C82000203EB5094D38CD00937F
:10CC0000029501946B46588099809A7105490022DB
:10CC10000978FFF7C1FA684600F08EF83EBD0000C3
:10CC2000D81802009820002010B5047800222300B4
:10CC3000FEF778FC070605070D1D262C06000A7076
:10CC400010BD01220A7002898A81828814E00222C2
:10CC50000A7002898A818288CA81C2688A60007CDF
:10CC6000062802D00020087410BD0120FBE7032233
:10CC70000A70C2888A810289CA81C068886010BD32
:10CC800004230B70C0888881CA8110BD05200870FC
:10CC900010BD000070B5064D06460024A0002958BE
:10CCA000002901D030468847641C082CF6D370BD9B
:10CCB000502900200EB5002910D011290ED00022D5
:10CCC000009202926A46508001910D2907D0862970
:10CCD00007D009201070104600F03CF80EBD0B2064
:10CCE000F8E70A20F6E70000014909680847000054
:10CCF0005820002070B5054D06460024A000295894
:10CD000030468847641C022CF8D370BD801802009E
:10CD1000F8B507460024064E064D04E0A000315841
:10CD200038468847641CE8788442F7DBF8BD000089
:10CD3000602800208820002070B5054D064600249C
:10CD4000A000295830468847641C022CF8D370BDD7
:10CD5000A01802000149096808470000E418020011
:10CD60007FB50446406800280BD00020039020784F
:10CD70000026414D0300FEF7D5FB066D0606304E3A
:10CD80007B6D0120F2E7A08900F0DAF9002804D1D8
:10CD9000E08903F039FB00285CD0A08900F0CAF9D3
:10CDA000014668464180E08903F028FB0146684659
:10CDB000017120780128606807D0002809D004207C
:10CDC000694608706068039020E00028F8D00320CE
:10CDD000F6E70120F4E708463AE0A08900F0B0F950
:10CDE000002804D1E08903F00FFB002832D0A0898D
:10CDF00000F0A0F969464880E08903F0FFFA69462F
:10CE000008716068002804D005200870A0680290AE
:10CE1000E1E70220F9E7A08900F092F9002819D093
:10CE2000E089002816D1A08900F084F9694648807D
:10CE3000E08903F0E3FAFF20694608716068002882
:10CE40000FD0072008706E70AE7002F07BFC684651
:10CE500002F034FB6878002802D06E7002F072FC99
:10CE60007FBD062168460170408802F0F9FCEAE7C0
:10CE7000082069460870AEE77420002000B510490C
:10CE800087B00978890702D4022007B000BD0D4998
:10CE9000884201D10420F8E7052269460A70012280
:10CEA0000A71C88000221146684601F06DFF002813
:10CEB00003D003F0AFF90020E7E70820E5E7000022
:10CEC000F4200020FFFF000000B50F4887B0007875
:10CED000800702D4022007B000BD06206946087012
:10CEE00000221146684601F04FFF002809D007488C
:10CEF0000178002901D00121017303F08BF9002092
:10CF0000E9E70820E7E70000F4200020502A00208D
:10CF100010B58CB014216846FEF727F91D4800783B
:10CF2000810703D56846FFF7B5FE30E0C0072ED174
:10CF3000012000F02BF900F0A3F9012468460475E4
:10CF400001F0B4FF0300FEF7EDFA0C071107111B07
:10CF5000190A191B1317131B0B200CB010BD02204C
:10CF600000F014F9012000F0F7F8DBE7002000E002
:10CF700003206946087603E00220FAE76846047653
:10CF80000022114605A801F0FFFE03F043F900203E
:10CF9000E3E70000F420002038B5040014D069460F
:10CFA00003F096F9002813D068460088010109486B
:10CFB00009188889002809D0A27A002A06D0401EC4
:10CFC00088810020A07238BD052038BD062038BDFC
:10CFD0000A2038BD302A00201FB501A9684603F099
:10CFE00035F904B010BD07B513460A46694600205E
:10CFF00003F02CF90EBD07B513460A46002168461A
:10D0000003F024F90EBD002805D0002903D00068E4
:10D0100008600020704705207047000038B50D46B5
:10D02000040017D0002D15D0694603F051F90028EF
:10D0300012D0684600886168020108481218908979
:10D04000401C9081296060680C3068600120A072EB
:10D05000002038BD052038BD0A2038BD302A002008
:10D0600010B5002804D00323002204F0A9FA10BD53
:10D07000052010BD10B50223002204F0A1FA10BD56
:10D0800010B5002A03D0022304F09AFA10BD05203F
:10D0900010BD000010B5064A5178082906D08B0053
:10D0A000044C491CE0505170002010BD0C2010BDF4
:10D0B000F42000205029002038B504460A480D46C7
:10D0C0000078800701D4022038BD002C0AD06946C0
:10D0D000284604F085FB0028F6D16946098821809E
:10D0E000658038BD052038BDF420002010B5044609
:10D0F0000E480078800701D4022010BD002C10D00B
:10D10000218802290FD80A4A0801801842896088BC
:10D11000121A032A07D404F059FB002020806080F3
:10D1200010BD052010BD042010BD0000F42000201B
:10D13000302A002003218903401A80B27047000082
:10D1400003218903401A0349884201D8012070470E
:10D1500000207047FE3F000002490A7882430A70AF
:10D1600070470000F420002010B50446007818280D
:10D1700002D1FEF7DBFF207010BD10B50446007829
:10D18000182802D1FEF7D2FF207010BD02490A789C
:10D1900002430A7070470000F420002070B5064674
:10D1A00000200546862906D0112902D0002903D087
:10D1B00070BD012500E001200E4C002A02460FD070
:10D1C00061793046FEF7E8FF2A4621793046FEF7BE
:10D1D000E3FF002261783046FEF7DEFF002204E024
:10D1E00061783046FEF7D8FF2A4621783046FEF7B0
:10D1F000D3FF70BD9C200020F8B506461C481F4692
:10D20000007815460C46C0070AD03046FFF740FBB1
:10D21000002807D0002C07D0A00507D00620F8BDB5
:10D220000120F8BD0220F8BD0320F8BD3068A042FF
:10D2300004D8A80271680019884201D90520F8BDF8
:10D24000002D10D0684602F037FF00280DD000985E
:10D250000221C0C00170A101090C8180058102F08A
:10D26000E7FF0020F8BD0420F8BD0720F8BD00004E
:10D270000C21002010B5084602F03AFF10BD000056
:10D28000F0B52648264C001B03092648194640697C
:10D29000421C03D10120000740698002224A127813
:10D2A0009646D2070CD00020F0BD1D4C15012C195C
:10D2B0002568002D03D06468002C00D0491E521C44
:10D2C0009A42F2D3002420E0E2B2002594462A4696
:10D2D0000FE0134E1701BE193768002F02D0776890
:10D2E000002F05D1767BAE4202D93546D6B2B44680
:10D2F000521C9A42EDD362461501094AAA185060A1
:10D30000157BAD02401B641C10608C42DCD30648C8
:10D310007146012211430170C5E700003821002049
:10D3200028210020001000100C210020002804D02B
:10D330000349496E016000207047032070470000D8
:10D34000602A0020F8B507461E481E46007815469C
:10D350000C46C0070ED03846FFF79AFA00280BD0CB
:10D36000002D0BD0002C09D028462043800707D081
:10D370000620F8BD0120F8BD0220F8BD0320F8BD4D
:10D380003868A04204D8B10078680919884201D2EF
:10D390000520F8BD002E11D0684602F08DFE002851
:10D3A0000ED0009806990760416001210172C560A6
:10D3B0000461868202F03CFF0020F8BD0420F8BD25
:10D3C0000720F8BD0C21002070B5174B0446186EDD
:10D3D000182148431549C0180A78950715D5022C1D
:10D3E00002D0032C1CD102E001F0A4FC18E04A7822
:10D3F000521CD2B24A70032A12D900224A70082164
:10D4000003F010FA02F042FE0AE0500708D5FB20B4
:10D4100002400A70586E002802D0022002430A70AF
:10D4200002F0C2FE70BD0000602A00200C21002026
:10D4300070B5002801D0012070BD164C0025207B5E
:10D44000002801D0257301E000F09CF8207803004B
:10D45000FEF768F8081E05080B0E1E111A1E00F0D4
:10D460001BF870BD00F07EF870BD00F061F870BD73
:10D4700000F038F870BD6088064900012039401876
:10D48000406801F0F3FC70BD656001F0FDFC70BD0B
:10D490000F2070BD502A002070B5104900208A1C52
:10D4A0000D460346203D0C18A67A002E08D0A37224
:10D4B00004016419A689002E02D1A47B012C08D096
:10D4C000401C80B20228EED30B704B8004484B60A6
:10D4D00070BD108000F046F870BD0000502A00209A
:10D4E0001D1D000010B50F4C60880101204620383A
:10D4F0000818818900290BD0052020700A480221D4
:10D5000081800168002301220848FFF775FE10BDE5
:10D510004168002301220548FFF76EFE04212170B7
:10D5200010BD0000502A00200421002028210020E6
:10D5300038B50A4908480B68898842688900591833
:10D540005388032404700020DB1C00909BB2044825
:10D55000FFF7F8FE38BD0000502A0020042100200B
:10D560002821002010B506494888091D02F000FF57
:10D57000002802D0FFF7DCFF10BDFFF7B3FF10BD9E
:10D58000502A0020F0B51D481D49077802460125A4
:10D5900002268C88203A3B00FDF7C4FF08051717C8
:10D5A0001A212C2C16170189491C01810021418068
:10D5B00001730B01D35C002B08D000234418491CD5
:10D5C00089B2A3720229F4D30570F0BD0123F5E7F7
:10D5D00042685288D21CA2188A800670F0BD458825
:10D5E0000B682D01AA1855680D60536014818E8058
:10D5F000062100E007210170F0BD0000502A002044
:10D6000004210020F0B504460088384D8DB0502824
:10D610001DD0522802D0542826D103E0A08800F063
:10D620000BFF21E0062069460870A08800F0A8FBE7
:10D6300069464880A2888A8000F054F9A0880022B8
:10D64000E978FEF7A9FD6846FFF74EFB0CE0207B6A
:10D65000012809D1A07A012806D1208924498842CD
:10D6600002D1A08800F024FFA878FEF777FD0028FB
:10D6700019D008A8FEF7A6FC142208A903A8FDF7F4
:10D680005BFD002403AE0BE060008719B888A97821
:10D69000FEF770FD002802D0B88800F0CDFE641CB3
:10D6A0000398A042F0D86878FEF758FD002819D0FA
:10D6B00008A8FEF787FC142208A903A8FDF73CFD83
:10D6C000002403AE0BE060008719B8886978FEF784
:10D6D00051FD002802D0B88800F0EAFE641C0398CF
:10D6E000A042F0D803F0C2F80DB0F0BD50200020E9
:10D6F000022900003EB504464088694648802078EB
:10D70000002814D001281DD002280FD1207900282C
:10D710000CD0608800F068FA0E49884206D00E49A5
:10D720000122C978FEF738FD03F0A0F83EBD0020C5
:10D7300008700846FFF7D8FA608800F055FA00F044
:10D740007BFE3EBD012168460170A1888180FFF704
:10D75000CBFA3EBDFFFF00005020002010B504466C
:10D76000007801280DD1608800F066FE608800F026
:10D770007FF9002805D0034960880122C978FEF7A7
:10D780000BFD10BD5020002010B5104C0020207063
:10D79000FEF7CCFC6070FEF7C9FCA070FEF7C6FC7B
:10D7A000E070FEF7C3FC2071617818290BD0A178D6
:10D7B000182908D0E178182905D0182803D00120AD
:10D7C0002070002010BD032010BD0000502000205C
:10D7D000F0B585B000F09EF86846FEF7F3FB002434
:10D7E0006D460C4F0EE060004619B08800F0C8FA94
:10D7F000B84205D10849B0880122C978FEF7CCFCAF
:10D80000641CA4B20098A042EDD803F02FF805B034
:10D81000F0BD0000FFFF00005020002010B501788F
:10D82000072902D1408800F043FE10BD10B5044620
:10D830000A4841782046FEF79DFC00280CD0084895
:10D8400000210C224A4312185288A24201D1C8B2C8
:10D8500010BD491C0829F4D3FF2010BD682000200A
:10D860008024002070B5094D094E00240C2060432F
:10D87000401940887178FEF77DFC002804D0641CB4
:10D88000082CF3D3FF2070BDE0B270BD80240020CF
:10D8900068200020F8B50746104E0125BD403068CD
:10D8A000FEF7BEF800280DD10D4C2069284207D1A3
:10D8B000384601F003F90028E06804D0284303E06B
:10D8C000A8432061F8BDA843E060206900222843F6
:10D8D0002061A1683068FEF75FF8F8BDEC1802001F
:10D8E000B42000201CB5054A9168D26801920091CD
:10D8F0000022694601F0AAFC1CBD00006C18020061
:10D9000003480021C9438180012101700020704734
:10D910005C20002010B5044801F0CCFB034988804E
:10D9200002F0D0FF10BD0000FFFF00005C200020CF
:10D93000F1B582B0029800F023FA002416490325BD
:10D9400001272646884209D06A46082101F054FC86
:10D95000002803D1019886880568841D2B4632462D
:10D9600021460298A9DF042804D0082804D00B28F7
:10D9700007D002E0112000E00020002F00D10B2092
:10D98000FEBD0027A80701D50125E7E73443F6D0FF
:10D99000002426460325E1E7FFFF0000F1B582B031
:10D9A000029800F0EDF907461B48874201D11B4859
:10D9B000FEBD01252A466D1C0026ADB26B4608212E
:10D9C000384601F049FC040002D0072C21D021E0A8
:10D9D000019903230B600A1D891D0298AADF040028
:10D9E00004D00C2C08D0052C08D008E008213846BB
:10D9F00001F0CCFC04460DE0012600E000240821E3
:10DA0000384601F0ADFC002800D00324002ED1D10F
:10DA100000E00C242046FEBDFFFF000002300000A5
:10DA20001FB504460078012815D12079012812D1AC
:10DA3000608802AA012101F0DFFB00280BD102213E
:10DA400068460170618841800398017868460171D9
:10DA5000054909688847044804490838808888428D
:10DA600001D002F02FFF1FBD64200020FFFF000047
:10DA70001CB500F085F96A46012101F0BDFB0028C4
:10DA800001D000201CBD019800781CBDF8B5074EE0
:10DA9000074C084D0746324661883846A7DFA84242
:10DAA00003D16088401C6080F5E7F8BDFFFF0000EF
:10DAB0005C200020033000008188054A914204D098
:10DAC0000088002801D00120704700207047000026
:10DAD000FFFF00003EB5044600780D46022815D130
:10DAE0000322611C6846FDF727FB0322211D02A8C3
:10DAF000FDF722FB01AA02A92846FDF76BFE0322CF
:10DB000001A96846FDF73CFB002801D000203EBD7E
:10DB100001203EBD10B50C46FFF788FEFF280AD055
:10DB20000C2148430549072241182046091DFDF7ED
:10DB300003FB002010BD052010BD00008024002044
:10DB400070B5018890B0102949D1011D2C2202A87E
:10DB5000FDF7F2FA6846234E007B344602AD0328F7
:10DB60002AD001F01BFD6846007B00280ED001285A
:10DB70000CD0022820D118E00E99281D1131FDF794
:10DB8000FBFC002802D06846048815E00DAA69460F
:10DB9000072001F0D9FC0028EED10DE00E99281DD8
:10DBA000491CFFF797FF0028EDD10DAA6946072011
:10DBB00001F0CAFC0028F1D168460089291D00F057
:10DBC000F9FDB4420BD068460089214600F086F882
:10DBD00068460189418001210170FFF78BF810B080
:10DBE00070BD0000FFFF0000084A00210C234B43DA
:10DBF000D35A834204D10C2041438818408870478F
:10DC0000491C0829F2D302487047000080240020F4
:10DC1000FFFF000010B50E4C182060700D4A0E4931
:10DC200000200C2343435B18401C5A800828F8D37B
:10DC3000FEF77CFA6070182804D00548C01C71DF1C
:10DC4000002801D0032010BD01202070002010BD4D
:10DC500068200020FFFF00008024002070B50446EB
:10DC60000D46401C00F090F9002810D01022691CCD
:10DC7000601CFDF785FA00280AD0002629462046B8
:10DC800011311130FDF778FC01463046084370BD74
:10DC90000126F3E70188002903D142189278002A6F
:10DCA00001D001207047491C0829F6D30020704795
:10DCB00010B50C460346FFF7EDFF00280BD018887F
:10DCC0002188884206D10822A11C981CFDF758FA29
:10DCD000002801D0002010BD012010BD10B501F0BA
:10DCE0001BFE10BD10B50446007888B0002826D170
:10DCF0002079072823D1608801AA072101F07CFA46
:10DD000000281CD101F04AFC1BE0694660880988A4
:10DD1000884216D004990298FFF7A0FF002810D07F
:10DD20006088FFF761FF01466846C18200210175E6
:10DD3000618801830188418305A8FEF7DBFF08B0F5
:10DD400010BD03AA6946072001F0FEFB0028DCD1C4
:10DD5000F5E7000070B50446FFF746FF054620468C
:10DD600001F04FFA054904468D4204D0002C02D13F
:10DD7000284601F0D1FD204670BD0000FFFF0000E5
:10DD800010B5FFF753FDFF2804D00C21484302498A
:10DD9000085A10BD014810BD80240020FFFF00007C
:10DDA0003EB5044601F0FAFB10E0019920464631E9
:10DDB000FFF77EFF002806D1019920462A31FFF7A0
:10DDC00077FF002802D0684600893EBD6A4602A956
:10DDD000072001F0B9FB0028E7D101483EBD000053
:10DDE000FFFF0000F8B50F46002804D00120FFF720
:10DDF000B3F90120F8BD397900290AD00026254D54
:10DE000001290BD0244C022920681FD003293BD1C3
:10DE100025E001F039F80121397133E000200101DA
:10DE2000695C02290BD0401C80B20228F7D3022083
:10DE3000FFF7ACF90120FFF78FF91848F8BD04018E
:10DE40006019406801F012F82E551BE001460023CE
:10DE500001221348FFF7D0F90221A18011E001F05F
:10DE600005F80C492368203149880A0109495118ED
:10DE70004D6825604B60A3880B810221A180054974
:10DE80008E543E710028D9D00120FFF765F90E208D
:10DE9000F8BD0000302A0020042100201D1D0000D4
:10DEA00028210020F8B51E4C2078002836D0E068E4
:10DEB000002600280CD00025607800282ED1684666
:10DEC00052DF052806D0002806D0FDF709FD0BE03B
:10DED0000125F1E7012607E0009800F019FD21690E
:10DEE000002901D000988847002D13D160780028C0
:10DEF00014D1608869460880A06861DF052804D0D5
:10DF0000002804D0FDF7ECFC04E0012502E0E16804
:10DF1000A0688847002ECFD0002DE5D0F8BD0000C6
:10DF200010210020418805480288914204D340888E
:10DF3000814201D801207047002070474020002016
:10DF40001048018CC9B2012917D1818C090714D15D
:10DF5000018D09060A0F03D1828D1206120F0ED011
:10DF6000090F012903D1828D1206120F07D0032950
:10DF700003D1808D0006000F01D0002070470120E2
:10DF800070470000C00F00F00021425C002A01D061
:10DF900001207047491C1029F7D3002070478007E3
:10DFA00001D00020704701207047000010B50448E0
:10DFB000017AC90702D00078FEF762FB10BD0000AD
:10DFC000F01F0020FFB5244D81B0287A1F460E4671
:10DFD000084304D0039A002E04D0002104E0052059
:10DFE00005B0F0BD1C491031019802F0CBFE04468B
:10DFF000014600220198FFF7D1F8002F03D02146F7
:10E000000198FEF757FE112C0FD006DC002C0AD029
:10E01000082C08D00D2C05D105E0862C11D00F4816
:10E02000C44200D003242046DAE73246E97801985A
:10E03000FEF7B2F8A978039A0198FEF7ADF800242C
:10E04000F1E73246E9780198FEF7A6F8A978039A35
:10E050000198FEF7A1F8E6E79C200020FECFFFFF25
:10E06000FEB517460C00064604D02078C00704D041
:10E07000012003E000217EDFFEBD02206946087119
:10E080003046FFF77DFE17490546884208D001A8B3
:10E0900000902B463A462146304600F025F806E02F
:10E0A00020782146C007304603D000F081F80446AE
:10E0B0000BE07EDF044600200090002C08D00022F8
:10E0C00001232946304602F079FB002C02D006E0FD
:10E0D0000122F5E768460179304602F095FB2046BB
:10E0E000FEBD0000FFFF0000FFB585B000252E46F5
:10E0F00001AA07210E9F089801F07EF8040008D1BC
:10E10000029D4420405D1835C607F60F01D0029DE0
:10E1100034350798204312D1002D10D0002E05D1A0
:10E1200028461230FFF7B6FD002808D029462A46B7
:10E130001231059885DF04460020387023E0002C5A
:10E1400001D0052C1FD106980078C0070DD003AB75
:10E1500001220721089801F07FF804000AD1072165
:10E16000089801F077F9040004D1069905987EDF3C
:10E17000040008D00721089801F0F2F8002802D026
:10E18000052800D00324002000903878002801D012
:10E19000012300E00023002C07D0002208990598F5
:10E1A00002F00CFB204609B0F0BD0122F6E70000AA
:10E1B000FEB50F46064601F01BF805461848854295
:10E1C00020D001AB01220721284601F045F80400C8
:10E1D0000AD10721284601F03DF9040004D139464F
:10E1E00030467EDF040008D00721284601F0B8F849
:10E1F000002802D0052800D0032401200090002C24
:10E200000BD002E0032400200090002201232946C5
:10E21000304602F0D3FA2046FEBD0122F6E70000A8
:10E22000FFFF0000F7B5114D0F46164629780098FC
:10E23000FDF7A0FF002812D00098FFF7A1FD0446CB
:10E240000B4884420BD069780098FDF793FF0028B3
:10E2500006D033463A462146009800F09FFEFEBDA8
:10E26000324639460098FEF7C7FCFEBD98200020D4
:10E27000FFFF0000F1B586B00698FDF76FFF00289C
:10E2800021D06846FDF79EFE00246E4618E060002F
:10E290008519A8880699FDF76DFF00280FD00B4F50
:10E2A000A888B978FDF766FF0590A888F978FDF78A
:10E2B00061FF0146A8880123059AFFF783FE641CCD
:10E2C0000098A042E3D807B0F0BD00009C200020D9
:10E2D000F0B5284C2146103948688B68227886466C
:10E2E0009C46CF78667836E0182353436168521C09
:10E2F000C918A378D2B2934200D100220B78022B26
:10E3000002D0032B27D123E003464D68194603E0D2
:10E31000A94204D00B46C96900291CD0F8E700299E
:10E3200019D08B4208D1C069002805D1124F0125B0
:10E33000BD600025AC4601270D68C969D961002977
:10E3400009D00B685B190B6005E00174C06900E03F
:10E3500000210028F9D19642C6D1064962461039FB
:10E360008A604860CF70704501D00120F0BD002068
:10E37000F0BD0000D820002000100140F8B52C4E60
:10E38000044670680025009041E0002C02D0204631
:10E39000E46920E0264818231030017842684B4396
:10E3A000491CC9B2D21801708378994200D1057016
:10E3B0001178506801292CD1017C002929D191685C
:10E3C0004160D16881601169C16051698161F178F2
:10E3D000002900D045604368B268164F991A0902B7
:10E3E000090AB94202D28268891806E0D11A0902E4
:10E3F0008268090A8A4202D9511A016000E0056068
:10E400004560012185600174C56102F073FE002C36
:10E41000BBD107481030017840788142BAD1716889
:10E420000098814201D00120F8BD0020F8BD000015
:10E43000C8200020FFFF7F00FEB5044619480026D3
:10E4400084422DD02046FFF773FA050012D00B2D21
:10E4500014D0112D10D01448C5421BD00921684694
:10E4600001702046FFF78CFC01466846418084809D
:10E4700002950DE0022102E001260BE0032168462F
:10E4800001702046FFF77CFC01466846418084808D
:10E49000FEF72AFC0548324681782046FDF77CFECF
:10E4A000FEBD0000FFFF0000FECFFFFF5020002058
:10E4B000FEB504460026FFF771FA0546112818D06C
:10E4C00004DC002D13D00C2D05D114E0862D25D0B1
:10E4D0001348C5421BD00921684601702046FFF74A
:10E4E0004FFC014668464180848002950DE0012181
:10E4F00002E001260BE00721684601708480204677
:10E50000FFF73EFC014668464180FEF7EDFB0548FB
:10E51000324641782046FDF73FFEFEBD0821EBE77D
:10E52000FECFFFFF50200020F8B5054600780C46CE
:10E53000002620420FD10020694608706846FDF78A
:10E5400083FA2878204202D12043287001266846A9
:10E550000078FDF797FA3046F8BD0000002398B028
:10E56000474A05211846FDF7DDF9002801D0FDF7DF
:10E57000B7F9444A44490320FEF736F8002801D091
:10E58000FDF7AEF969460020FDF71EFF002801D017
:10E59000FDF7A6F968460078022869D00021684690
:10E5A0000171FDF757FE6846007901F0C9F90120B5
:10E5B00001461031684601730E2234A103A87CDFA6
:10E5C000002801D0FDF78CF9002400945021684602
:10E5D00001940180A0214180FF2184809131C1807C
:10E5E0007ADF002801D0FDF77BF93C2101A8FCF778
:10E5F000BCFD022168460171012585710621C171AA
:10E60000858226480690202110A8FCF7AEFD10A8B0
:10E61000C570FF202D301490B4201590204B10AA07
:10E620000021009401A8FDF7C7FA002801D0FDF7EA
:10E6300057F91C216846FCF798FD0520C00301909E
:10E640000F20000402900094032168460173C481E6
:10E65000047414480590144806906846FDF740FC81
:10E66000002801D0FDF73CF90320FDF7B5FB02E0DF
:10E67000012194E748DF0028FCD0FDF731F9F9E7E4
:10E680003821002041C50100CD0C00004E6F72649E
:10E6900069635F54656D70616C650000EA1F00205E
:10E6A0004FEC010015ED01005DCA010070B5144684
:10E6B00082880E4605462088111D4118921C9942F9
:10E6C00001D8FE2A01D90C2070BD521C325420887A
:10E6D000FF21401C80B2208031542088401C80B231
:10E6E00020808119288802F038FE2188401880B2E5
:10E6F0002080AA88002A09D0A968002908D080199A
:10E70000FCF71AFD2088A98840182080002070BDE1
:10E71000072070BDF8B50F4601781446054601295B
:10E7200002D16878002806D02088821C9A422DD811
:10E73000012902D006E00720F8BD69784118891C3C
:10E74000994223D8181A801E86B26846068021880E
:10E75000B81C081869467DDF0028EDD1287802280A
:10E7600005D169460988B14201D809210AE008218A
:10E77000012805D16878B04202D86A46108001E0CD
:10E780006846068068460088FE2801D90C20F8BD3E
:10E790002288401CB8542088401C80B22080395404
:10E7A00020886946401C208009884018208000206D
:10E7B000F8BD0000F8B5FF240F46054600291FD01C
:10E7C000104EB5421CD01048012241782846FDF772
:10E7D000E3FC2846FFF72AF80446FF2804D1FFF798
:10E7E00041F80446FF280BD00C2148430749024654
:10E7F000401845808E5207223946001DFCF79CFCCC
:10E800002046F8BDFFFF0000682000208024002083
:10E8100070B50B4D0E46A84201D1002000E0401C0F
:10E8200084B209E02146304601F064FA002801D0A4
:10E83000204670BD641CA4B2FF2CF3D9284670BDDD
:10E84000FFFF0000C20843075B0F0120895C98406E
:10E85000084070470121890740180068002800D04F
:10E860000120704700280FD00849094A096800BFF5
:10E8700000BF00BF00BF00BF00BF00BF00BF91428C
:10E8800000D000BF0138F2D17047000024210020E1
:10E890000024F40070B50E4C00252078002801D02B
:10E8A000852513E00021A16061602161E1600948D4
:10E8B00000680126304002D1032100F02FF802F059
:10E8C000B7FB002801D1044886612670284670BD38
:10E8D000AC28002000E100E00005004038B5002031
:10E8E000694608706846FDF7AFF8084C20780028A4
:10E8F00001D1FFF7CFFFE068401CE0600120A0706D
:10E9000068460078FDF7BEF838BD0000AC2800204E
:10E9100010B5002801D1FDF7F5FF10BD8207D30E19
:10E92000FF229A408907090E10B5994000280BDA9A
:10E9300003071B0F083B9C080C4BA400E318DC6981
:10E9400094430C43DC6107E08408094BA400E418FD
:10E95000236893430B432360C106C90E01208840FE
:10E96000044908600449086010BD000000ED00E0A3
:10E9700000E400E080E200E000E100E0F3B581B0F7
:10E98000054601F019F81F4F0028284617D0FDF75B
:10E9900077FFC0192030007F8009032802D00128AA
:10E9A0000BD005E018480069E840C007C00F04D04C
:10E9B0000321284600F0FBF8FEBD0221F9E701F033
:10E9C00007F80028F8D02846FDF75AFF04468000D3
:10E9D000C11D0E4AF9318018026989B201263243FD
:10E9E0000261084600F014F902980028E4D0284695
:10E9F000FDF746FF800038580028DDD00448A640C7
:10EA00004660FEBDC02800200005005000650040A3
:10EA100000630040FEB5044625480E46001920213B
:10EA200041560027C8171346401C01D008273CE078
:10EA3000F27819462046FDF7FFFE0546401C33D00C
:10EA4000B07800280BD005200007A1000918072086
:10EA500000020918086802229043086007E00021BC
:10EA60007378204600910A46019100F07BF8F07817
:10EA7000002810D00F48AA001018317802690E4BF8
:10EA80001A400261E206D20C8907890B0A43016928
:10EA90000A43026109E00648327840192030017FBC
:10EAA00092011143017700E004273846FEBD0000C3
:10EAB000C028002000650040FFE0FCFF0349096911
:10EAC000C140C807C00F00D00120704700050050AA
:10EAD00070B5144D2879002801D0082070BD114967
:10EAE00000204039421E0B182033401CC0B21A705F
:10EAF0002028F8D300242046FDF790FE641CE4B2E1
:10EB0000082CF8D303210620FFF708FFFF207D30F3
:10EB100000F07EF801200449C007486001202871F8
:10EB2000002070BD002900200063004002480079E9
:10EB3000002800D0012070470029002070B5520045
:10EB40000A439900049D0A432902059E0A433104A1
:10EB500005240A43240780000721001909024018F0
:10EB6000026070BD70B552000A439900049D0A43CB
:10EB70002902059E0A43310405240A432407800024
:10EB80000721001909024018026070BD0522120712
:10EB900080008218072000021018026803231B045B
:10EBA0009A430260026809040A4302607047052222
:10EBB0001207800082180720000210180268032341
:10EBC0001B049A430260026809040A43026070470A
:10EBD000012282400348002901D082607047C26050
:10EBE000704700000005005038B5084B05241B682D
:10EBF000009324026B46411805E085005D592D19EC
:10EC00002D69401C20C28142F7D838BDE8180200A7
:10EC10000249401800210160704700000060004078
:10EC2000034940180068012800D000207047000008
:10EC3000006000404058002800D0012070470322A7
:10EC4000120280184068084000D00120704710B5BB
:10EC5000002809D0032806D10220FDF7B7FC0028C0
:10EC600001D0FCF73DFE10BD01F038FF10BD0000E3
:10EC700010B50446008888B03A2821D009DC022863
:10EC800024D0102811D011280DD10020FDF79EFCB2
:10EC900019E051281ED0552805D1A088132176DF10
:10ECA00011E0FCF71DFE08B010BD0720FDF78EFC3B
:10ECB000002801D0FCF714FE1549A0880880F2E76F
:10ECC000A088132176DF0028EBD1ECE7A088002193
:10ECD00067DFF8E71022A11D04A8FCF72DFA6846AB
:10ECE000017C0029DFD0007E042803D0062801D053
:10ECF0000528D8D1022908D0012069460870FF20D4
:10ED000083308880A088A8DFDDE70220F5E70000D7
:10ED1000E81F002010B50078002807D104483B21E7
:10ED2000008876DF002801D0FCF7DAFD10BD000076
:10ED3000E81F002010B5134A00215170017A012903
:10ED400011D002290ED18189491C8181C189491CB8
:10ED500089B2C181028A914204D1002101F062FD91
:10ED600001F094F910BD838AC28A991AFF2901DC47
:10ED700089B201E0FF210131511889B2C182994263
:10ED8000EBD010BD0C210020F7B51C4D0E460146FE
:10ED90006A6F002082B0032A2DD82C4678340827C9
:10EDA000636CBF1BBB4226D8286F10188007800FEA
:10EDB0001C2250434019FCF7BFF9686F401C68677C
:10EDC000002E17D0216C606C40184007800E00198F
:10EDD0000023009009E00498D9000A1806CA009898
:10EDE00006C06846FDF764FD5B1CB342F3D3606C5C
:10EDF00080196064012005B0F0BD0000702900207A
:10EE00000389CA1C9A1802814289511AC91E41817C
:10EE100070470000F7B50D460121890247180446E6
:10EE2000002608340220288012E02046FEF744FE27
:10EE3000002817D00C48A1684268914200D941606F
:10EE4000608881000C1929880818C01C28800C349F
:10EE5000BC4202D22068401CE7D10298002800D0B2
:10EE60000670FEBD0126EBE7F420002008B5002166
:10EE7000009101460223024A0248FEF763FA08BDE8
:10EE8000001902002821002008B500200090044845
:10EE900002230168034A0448FEF754FA08BD000043
:10EEA00004210020F818020028210020F8B50025D0
:10EEB000354F2C462E4600953448B1020068401864
:10EEC0000168B94205D1324A4168891830D0012918
:10EED0000CD000218A0082580346521C36D00320F1
:10EEE0002C4922018854641CA4B21BE0009900291B
:10EEF0000CD0284B022221015A54274A1368254A74
:10EF0000891802224B60641C0A81A4B222490022A3
:10EF10000860091DFFF77EFF1F488088022831D056
:10EF200008200543761CB6B2032EC5D3E8B2F8BD5F
:10EF30001849002322018B5451180A4648600E32AA
:10EF40000831FFF767FF02200543CCE7491CFF2982
:10EF5000C0D911490A68002A0CD00E4A02212301A7
:10EF6000D1549A1850600B48118120304480641CA1
:10EF7000A4B204E002200B608880012000900120F0
:10EF80000543CFE70420CCE7DEC0ADDE282100201A
:10EF900002FEE10E302A00200421002070B5184D39
:10EFA0000E46044623CD86B0029500900191684636
:10EFB000448082808371134D2046A978FDF7DAF8EA
:10EFC000002803D03046FEF7C5FE0FE0072130468B
:10EFD00000F0C6F9002809D0052807D109226946A2
:10EFE0000A73CC81049003A8FDF7A6FE00222978BD
:10EFF0002046FDF7D1F86846FDF79EFE06B070BDCD
:10F00000CC18020098200020F0B585B00746FDF727
:10F01000A5F8002814D06846FCF7D4FF00246D46FC
:10F020000BE060004619B0883946FDF7A3F80028C8
:10F0300002D0B08801F046FF641C0098A042F0D8CE
:10F0400005B0F0BD70B5054D06460024A000295856
:10F0500030468847641C052CF8D370BD8C1802001C
:10F060003EB50F4D002414206043401902F082FA8F
:10F07000641C082CF7D30821502001910A4901246F
:10F08000C2000290074B0094881800F0DCFC0028B6
:10F0900001D003203EBD0348447000203EBD000067
:10F0A0008027002080200020F024002010B500F0F0
:10F0B00043FA10BD10B500F043FA10BDF0B50025BD
:10F0C00085B00095019502950395044641886846F0
:10F0D0004180217901712E462179608802F024FA5D
:10F0E00022780421404F1300FCF71CFA0A0606366A
:10F0F0001C1C383E43484B4D00280DD0417CC907AD
:10F100000AD002F049FA684606702078012800D03B
:10F110000020694608722AE0012069460870A0684C
:10F12000029024E000280ED08268A3689A420AD197
:10F13000427CD30707D07B6852085B1C52000A430D
:10F140007B6042741FE0022069460870E06803900B
:10F150000DE0FFF777FF16E0032006E06846017038
:10F16000E06802906846F4E70520694608700846A2
:10F17000EFE7062069460870E068D1E7012507201F
:10F18000F3E7E06802907868002824D0174E002446
:10F19000142027464743B819417C4A0703D48907FE
:10F1A000C90F29421CD08178F05B00F0EFF80028ED
:10F1B00016D014214C43325B69464A80B9198A78CB
:10F1C00069460A71862808D009216A4611700290A2
:10F1D0006846FFF737FF05B0F0BD08200870F7E775
:10F1E000641C082CD4D3F6E7802000208027002060
:10F1F00010B500F06BFA10BD10B5002300F0D6F981
:10F2000010BD38B50546002420460AE0817828461E
:10F2100000F0A6F8002802D0052800D003240098AA
:10F22000401C00906946284602F090F90028EDD174
:10F23000002C07D1284600F051FA002802D00728F8
:10F2400002D00324204638BD0724FBE710B513463F
:10F25000002200F0E3F910BDFFB581B00498154617
:10F260000E46002804D0072E05D0082E19D102E042
:10F270000E2005B0F0BD002D13D0082D11D8019837
:10F2800000F037FA00280CD0002000903146019899
:10F2900002F04AF9041E26D0E068A84212D20027E4
:10F2A00009E00720E5E7207CC019C1B22A4800F038
:10F2B00002FC7F1CFFB2E068B842F4D8204602F09E
:10F2C00059F910E0A84217D9EFB207E0207CC01925
:10F2D000C1B2214800F0EFFB7F1CFFB2E068B842EA
:10F2E000F4D8002C08D1FF211C48019F02F01CF922
:10F2F000041E05D00780A670207CFF2802D00AE0FB
:10F300001120B6E72946144800F06EFB2074FF2850
:10F3100013D001200090E560217C0F4800F0B4FB81
:10F3200002000ED0ABB23146049800F073FA009898
:10F3300000280FD0082E06D00CE0204602F01AF963
:10F34000DEE7032095E70498049900884968800067
:10F35000801F888000208CE770270020FFFF0000BE
:10F3600070B5002402F0E0F805000CD068680028B1
:10F3700004D000F0DAF9040000D00324284602F09B
:10F380000BF9204670BD052070BD00007CB50D4610
:10F390000646072903D0082D01D007207CBD002098
:10F3A00000900190684685702946304602F0BCF80E
:10F3B000040004D0607CC00703D000207CBD052081
:10F3C0007CBD217C214800F05FFB020025D029464E
:10F3D0006846E36800F0B1F9684602F093F8234606
:10F3E000083369463046626800F018F90246607CCE
:10F3F0001749430704D5830702D54B685B1E4B6052
:10F40000FB25FD23002A0AD0112A0DD0862A14D00C
:10F41000072A00D0032210467CBD03207CBD0121B9
:10F420000843284018400EE04A68521C4A600421F4
:10F430000843184060740022EDE74B6828405B1CCD
:10F440004B60022108436074E5E70000702700204C
:10F45000802000207CB50D46072903D0082D01D05F
:10F4600007207CBD002602F05FF8040003D060682E
:10F47000002802D01BE005207CBD217C0E4800F056
:10F4800003FB024600200090019068468570002A28
:10F490000FD02946E36800F050F9684602F032F8D0
:10F4A000211D684600F029F90646092801D030469A
:10F4B0007CBD03207CBD0000702700200149096845
:10F4C000084700008818020070B588B01748FDF79B
:10F4D000E1FD002802D0032008B070BDFDF718FD43
:10F4E000002801D08620F7E700F0EAF90020104C50
:10F4F0000290E61F03900DE0694604A8FDF78EFD1B
:10F5000000988088801B85B204A8FDF745FD284639
:10F5100000F08AF902AA04A92046FDF764FD00283C
:10F52000EAD00449012008700020D5E761CD010030
:10F5300007C000007420002010B500F09FF910BD36
:10F5400010B500F0A3F910BD70B505460320800387
:10F5500086B014460E46281880B20F4A6946FDF759
:10F5600042FD002805D103A96846FDF757FD002894
:10F5700002D0002006B070BDA5700398408820809E
:10F580000498606003988088FDF7D4FD3080684659
:10F59000FDF702FD0120EDE7782000200248002160
:10F5A000416081607047000074200020F0B587B092
:10F5B0001D46144607460E46FF280CD8084600F0A4
:10F5C00019F9002807D003AA3146384600F0FAF8A6
:10F5D000002809D102E0072007B0F0BD01A903A867
:10F5E000FDF71CFD002801D00520F5E7A670019865
:10F5F000002D408820800AD082002868904204D8DC
:10F6000002996068FBF798FD03E00420E4E70298A4
:10F61000606003A8FDF7C0FC0020DDE77FB588B07F
:10F620001D460C460646FF2834D8A07800F0E2F8C4
:10F6300000282FD06068069020886946888330466D
:10F6400000F078F969460880A07803218903401802
:10F650006946488006A8019001200881A17803AA84
:10F66000304600F0AFF805280A9815D0002802D0DF
:10F670000AA8FDF73BFD694603A8FDF7F1FC002849
:10F6800017D007281FD008281BD00E2819D0032018
:10F690000CB070BD0720FBE7002805D00AAA694618
:10F6A00003A8FDF7EDFCEAE7694603A8FDF7E2FCD5
:10F6B000E5E7002D03D0294603A8FDF7A4FC0020B0
:10F6C000E6E71120E4E78620E2E7000010B50248F3
:10F6D00000F0AAF810BD0000FFFF000010B5FF28E1
:10F6E00001D9072010BD00F0A7F800F02BF800208A
:10F6F00010BD10B500F0F8F810BD70B504460D4609
:10F70000807800F077F800280BD021882846FDF794
:10F71000D3FC002804D0072805D0092800D00320F6
:10F7200070BD072070BD862070BD01B56846FDF72D
:10F73000DDFC002800D0032008BD10B59BB200F00E
:10F7400069F810BDF0B589B000261C4F0496384604
:10F75000059603E0204600F083F8204600F08EF87E
:10F760000446B84207D000F0E5F804AA06A9FDF760
:10F7700042FC0A28EED0124DA878002819D1BC42CC
:10F7800017D00320800301272018AF7080B2FDF747
:10F7900075FB08280FD000280BD0AE7009226946EF
:10F7A0000A704C80FF220A71039002966846FFF7A8
:10F7B00085FE09B0F0BD6F70FBE70000FFFF0000A1
:10F7C000742000207CB5054616460C46084600F01D
:10F7D00011F8002003210090890301906818611836
:10F7E00080B289B26B463246FDF7F6FB002800D0A6
:10F7F00005207CBD07280BD0012809D0082807D098
:10F80000052805D0062803D0042801D00020704721
:10F810000120704710B5502463439BB28170DB1CFC
:10F8200099084260018010BD10B50249FDF74CF8FF
:10F8300010BD00002028002010B504460648844270
:10F8400007D006492046FDF73FF8A04201D101202C
:10F8500010BD002010BD0000FFFF00004028002068
:10F8600010B50446044900F009FE03492046203142
:10F8700000F004FE10BD00002028002010B5024951
:10F88000FEF7C6FF10BD00004028002070B50A49F1
:10F89000FEF7BEFF0446094D08E000F031F80028ED
:10F8A00007D005492046FEF7B3FF0446AC42F4D129
:10F8B00070BD204670BD000020280020FFFF000022
:10F8C00010B508484021FBF750FCFF2401342146C5
:10F8D000044800F0DFF903482146203000F0DAF94F
:10F8E00010BD00002028002010B5FF2804D80146D4
:10F8F000024800F0FFF910BD002010BD20280020B4
:10F9000010B5FF2804D80146024800F0F3F910BDF5
:10F91000002010BD4028002010B50C46FDF786FFE2
:10F92000FF2803D00C21484301490C5210BD0000B0
:10F930008024002003218903401880B27047000012
:10F940001CB5044600F064F9002801D0FBF7C8FF9D
:10F95000002C05D000F0B2FA002801D0FBF7C0FF60
:10F960000020009001906846007801221043812118
:10F97000084030304106490E684601700721417049
:10F9800010218170C178022311431943C17001799C
:10F9900011431943017100F0C7FA002801D0FBF7A9
:10F9A0009FFF044800F0A8FA002801D0FBF798FF59
:10F9B0001CBD0000E9FA0100044908182021415645
:10F9C000042901DB0120704700207047C028002077
:10F9D0000449081820214156042901D2012070470A
:10F9E00000207047C0280020F8B50F46060028D038
:10F9F0003068002825D07068002822D0FF24002518
:10FA00001CE02946706800F04DF9002808D0FF2C52
:10FA100000D12C46281B401CB8420DD12046F8BD11
:10FA2000FF2C06D108E02146304600F044F8641C63
:10FA3000E4B2AC42F7D3FF246D1CEDB2B068A8422B
:10FA4000DFD8FF20F8BDF8B50400069E089D079892
:10FA500018D0002916D0002B14D007466F439742C8
:10FA600010D8C21DD208B2420CD800280AD0002DEE
:10FA700008D0E560A0600AC481B2184600F00AF917
:10FA80000020F8BD0720F8BD70B504000D4610D069
:10FA9000206800280DD0606800280AD0FF2D08D00B
:10FAA00000F028F9002804D0E068216868430818AD
:10FAB00070BD002070BD70B504000D460FD02068E9
:10FAC00000280CD06068002809D0FF2D07D000F076
:10FAD00011F9002803D02946606800F017F970BDBD
:10FAE00010B501F019F810BD08B501780B00FBF74F
:10FAF00019FD0F0F0F0F0F0910240F220F241B24C5
:10FB00000F1F0F000021009140886946FFF7E8FFB2
:10FB100008BDFDF7D9F90E28FAD00828F8D000283A
:10FB2000F6D0FBF7DDFE08BD0320FCF755F9F6E73C
:10FB300000F0A6F808BD0069F1E78068EFE770B54E
:10FB400086B0044614216846FBF70FFB60886946BF
:10FB50008880FEF749F86946488026780020082208
:10FB6000072105253300FBF7DDFC0A06060B0D0F08
:10FB70001416281A1D256B46197058721A7219E04E
:10FB80000D2009E00E2007E06A46117050721572D0
:10FB900010E00F2000E01020694608700AE0684677
:10FBA000057007E0062168460170A0680290A188F0
:10FBB000684641806846FDF7ABF806B070BD0000AE
:10FBC00010B50446007886B000281AD0012816D156
:10FBD0000E49608801224979FCF7DEFA1421684653
:10FBE000FBF7C3FA6088694648806088FEF7C8F86A
:10FBF00069468880002008706846FDF789F806B0DD
:10FC000010BDE08800F04EF9F9E7000088200020E0
:10FC100070B5FFF759FC00282ED1FFF721FA002814
:10FC20002AD100F087FF002826D101F08DF80028A6
:10FC300022D1FDF7A9FD00281ED1FDF761FE0028A5
:10FC40001AD1FDF7E7FF002816D10C4C401EE080CA
:10FC500000251820A56020716071FCF767FA2071FB
:10FC6000182809D0FCF762FA6071182804D0657072
:10FC700001202070002070BD032070BD882000206E
:10FC800010B503480078002801D0FDF7A1FD10BD94
:10FC90008820002010B5002803D0C91DC908FBF733
:10FCA00064FA10BD10B5002809D04B075B0F012284
:10FCB0009A40C908D2B208181146FEF735FC10BDAB
:10FCC000F8B50D46060013D0002401270EE06107A9
:10FCD000490F38468840C1B2E0088019FEF724FC7D
:10FCE000002801D02046F8BD641CA4B2AC42EED37B
:10FCF0002846F8BD002807D0CA08805C4A07520F82
:10FD000001219140084000D001207047F8B5044619
:10FD10004805050E4907490F01208840C6B2002C4E
:10FD20000ED0605D30420BD0002168460170FBF7B9
:10FD30008BFE605DB043605568460078FBF7A2FE1D
:10FD4000F8BD000010B5044606480078002808D029
:10FD50002046FDF7F5FE204600F0D4FE2046FDF7D4
:10FD600051FC10BD88200020F0B58BB00446142152
:10FD70006846FBF7FAF9608869468880FDF734FF2A
:10FD80006946488027780120082207210026434D34
:10FD90003B00FBF7C7FB0A060E20353B435F80782C
:10FDA0007A806A46117021791172567203969072A8
:10FDB0006EE06A461170217911725672A168039142
:10FDC0009072A868002863D0A168814260D1AE60BB
:10FDD0009088E88012E068460270217901724672CC
:10FDE000A0680390E0680490A868002850D0A1683B
:10FDF00081424DD1AE60E868401EE860039647E05E
:10FE00006A461170217911725072F7E769460A70DB
:10FE100022790A724872A068049039E00920694684
:10FE20000870A878002833D01D4C2046FFF742F90F
:10FE3000A0422DD12046FFF739F9A04228D1AE705B
:10FE4000142105A8FBF791F90B216846017504837D
:10FE5000C48214E00A2069460870A0680290A8785D
:10FE6000002815D0AE70142105A8FBF77EF90C20F0
:10FE7000694608750A480883C882A068079005A8E3
:10FE8000FCF746FF04E0052000E006206946087004
:10FE90006846FCF73DFF0BB0F0BD00008820002055
:10FEA000FFFF000010B504490978002902D0FDF7D2
:10FEB00051FF10BD082010BD8820002070B50C48EF
:10FEC0000178002904D001210A4D8170284608E0FC
:10FED000082070BDFFF7E6FF002801D0032070BDA9
:10FEE0002046FFF7E7F80446A842F3D1002070BD92
:10FEF00088200020FFFF000010B5094A1178002972
:10FF000004D0D178032903D3042010BD082010BDEC
:10FF10008B00044C491CE050D170002010BD000043
:10FF2000882000206028002010B5044909780029A5
:10FF300002D000F041FE10BD082010BD8820002036
:10FF4000F0B585B00446012614216846FBF70DF98B
:10FF50006088694648804B4F2078002539797A7946
:10FF60000300FBF7DFFA0D828D081C30424C51591B
:10FF7000646A6C7E820001206A4610702079002835
:10FF800001D0012200E00022012806D0002560886F
:10FF9000FCF702F960882A4611E00125F7E7022004
:10FFA0006A4610702079002801D0012000E002206C
:10FFB000107260880122FCF7EFF822796088797965
:10FFC000FCF7EAF852E003206946087060881146A1
:10FFD000FCF7D0F8002801D0012100E0022168469A
:10FFE0000172A1790173A18839E06088FCF7C2F839
:10FFF000002845D10220694608700D7236E00321C1
:020000040002F8
:10000000684601700572ECE7072069460870A2880F
:100010008A8008724D7230E0082168460170A1881C
:100020008180072101724572A068049025E00620B6
:10003000694608706068029018E0052012E003200D
:100040006946087060881146FCF794F8002801D0D2
:10005000012100E00221684601720B4905734181CC
:1000600004E004206946087000E000266088FDF77F
:1000700087FE69468880002E02D06846FCF748FE5D
:1000800005B0F0BD88200020011100000848416E35
:10009000491E416604D10749FD230A781A400A70B7
:1000A000016E491C0166042901D1002101667047D7
:1000B000602A00200C21002070B50C490446486ECF
:1000C000042810D00A6E1218042A00D3121F401CF4
:1000D000486618204243551801462846FBF745F864
:1000E0000120256070BD002070BD0000602A002046
:1000F000F0B52B4C1C22216F85B051430D19297886
:10010000284E00270B00FBF70DFA07190509090D0A
:100110000D1119002946FDF765FE09E0294601F099
:10012000DBFA05E02946FCF7D1FC01E0FDF780F998
:1001300000282FD0B04202D1019710E00F2001908B
:100140002878022801D0032809D11548AA7D7830E3
:10015000016C89180164AA7D416C891A4164694661
:100160002846FCF761FD6846FCF794FD206F1C21D2
:1001700048430019FAF7F9FF606F00280CD0216F8F
:10018000491C8907890F2167401E606704D0002041
:10019000FFF7AEFF05B0F0BD0420FCF7DDFFF9E787
:1001A000702900201D1D000010B518481822016E8E
:1001B00051430C18406E00281FD0207A012802D02D
:1001C000022816D10FE0A18AE08A091AFF2901DC72
:1001D0008AB201E0FF220132E16880002369091838
:1001E000181829DF01E0A08928DF112806D000288F
:1001F00003D00921204600F015FB10BD0449FD2263
:100200000878104004221043087010BD602A0020B6
:100210000C21002010B505480078400705D40420C3
:10022000FCF7B4FF0020FFF763FF10BDF4200020AF
:1002300010B5054801784A07920F04D102221143F4
:100240000170FFF7B1FF10BD0C210020F8B5074683
:100250001D481C46007815460E46800701D4022032
:10026000F8BD002D01D0002C28D10520F8BD0101DA
:100270001648405C00281ED116E02068002F03D0ED
:1002800081883A8891420FD1002E03D001883288AC
:10029000914209D180682860206868600B4820304E
:1002A000008928810020F8BDA088214600F060F870
:1002B0000028E2D12060A088401CA080A0880228ED
:1002C000D5D30A20F8BD0000F4200020302A0020F9
:1002D000F8B505464068244F00260C46002828D073
:1002E00022490A68824224D84968814221D3FDF715
:1002F00056FE00281DD028893989884219D103CD9E
:10030000083D8A68904214D13A460020203A0125DF
:10031000AD0203019B185B688B4204D25B198B42D0
:1003200001D9208011E0401C80B20228F1D30020C6
:10033000F8BD268000960AE0009829688068884207
:1003400005D100986860388928810120F8BD20888F
:10035000694600F00DF80028EED12088401C80B2DC
:1003600020800228E6D3E2E7502A0020282100203E
:10037000F8B50E460A68124900014518002A04D053
:100380005088800084180C3401E06C680834012720
:10039000BF026868C019A0420FD92068401C0CD069
:1003A0002046FDF789FB002802D001203460F8BD0B
:1003B0006088800004190C34EBE70020F8BD0000D1
:1003C000302A002038B50C46002100910146012357
:1003D000074A0848FCF7B6FF002801D00E2038BDB8
:1003E000054A2101012089188873002038BD0000CA
:1003F000F418020028210020302A0020032189035C
:10040000401AC0B27047000003218903401A034913
:10041000884201D80120704700207047FE3F00004D
:1004200038B5044613480025436C002B08D0026CF5
:10043000D500521C52072D18520F5B1E43640264F4
:1004400000200090A08AAB88800041180A482A68E2
:10045000FCF778FFA18AAA888918A182A17D491E8C
:100460000906090EA17501D101212174002800D0CF
:100470000E2038BDE82900202821002010B50A46AA
:10048000FF2803D801461046FFF740FC10BD0000CE
:1004900070B501240B49600408600B494010886066
:1004A000094940398860094D6C602F20FEF7DAF960
:1004B000AC60074D00242F20AC60FEF7D3F9AC7080
:1004C00070BD000080E100E04013014000100140D9
:1004D000C820002030B5FF220523CD7D002409323D
:1004E0001B02C318002D8450986905D04B7ECA6842
:1004F000D054487E401C487630BD1FB501246B4661
:100500001C701972019206C8684690471FBD000012
:1005100010B50446FBF722F800280CD0A007C00E47
:10052000002C0ADA2107090F08398908144A8900C2
:100530008918C96906E0134810BDA108124A89004C
:1005400089180968C1400806800F042811D20028C4
:100550000FD002280DD00D494B68E206D20E0120C3
:100560009040002B08D0620992008B5803438B50B7
:1005700004E00448401C10BD05490860002010BD7F
:1005800000ED00E00120000000E400E0EC2000208D
:1005900000E100E070B5049D002819D0002917D0B3
:1005A000002A15D000246600865B9E4211D10020EF
:1005B0000123A3400AE0002D03D00C1826781E4327
:1005C00002E00C1826789E432670401C9042F2D31D
:1005D00070BD641C082CE6D370BD000070B50546E4
:1005E00000242146284600F00DF8002801D02046BE
:1005F00070BD641CA4B2082CF3D3014870BD000088
:10060000FFFF000001228A40024201D00120704712
:100610000020704710B50C4603000CD000204100AC
:10062000595A914204D181B22046FFF7EBFF10BD29
:10063000401C0828F3D3002010BDF7B5002086B079
:1006400017460D460090002913D000246E46A1B233
:100650003846FFF7D7FF002808D00099600049000E
:10066000285A891988800098401C0090641C082C26
:10067000EDD3142269460698FAF75EFD09B0F0BD85
:1006800008B5009313460122FFF784FF08BD000060
:10069000F0B5054687B00C3000270090FDF780FBD1
:1006A0000646264C28886946C880A64203D1288879
:1006B000FDF766FB0646A64213D004AA0721304682
:1006C000FEF79AFD00280CD1059C3434207CC0072D
:1006D00006D1204612300099FDF7EAFA002800D032
:1006E0002746002328881A46394686DF002808D086
:1006F00009216A461171029001A8FCF71DFB07B0A1
:10070000F0BD0024002F0BD02888002100F07CF8D9
:100710000094012228880023314600F04FF8EEE7CC
:1007200006216846017106490181847201A8FCF71F
:1007300003FB0094002328881A46EDE7FFFF000022
:1007400006100000002835D00278910701D4D109A5
:100750002FD15106490F04292BD8930703D503291C
:1007600001D1D10925D041788378994221D8072930
:100770001FD3102B1DD8C1784B071AD4007943071B
:1007800017D40B0715D4030713D4D20702D0CA0716
:1007900009D010E0CA070CD189070AD4C10708D1D3
:1007A000800706D407E0890705D4C10703D1800775
:1007B00001D400207047012070470000FFB581B0D0
:1007C000104D1F46164629780A9C0198FBF7E4FC59
:1007D000002E11D03A4669780198FBF7DDFC2246DD
:1007E000A9780198FBF7D8FC002C03D00299019856
:1007F000FDF774FA05B0F0BD002CFBD00298FDF7B0
:10080000A9FAF7E7982000203EB5054C6D461CCCB0
:100810001CC56A46508011716846FCF78DFA3EBDD2
:10082000A81802001FB500220092019202920392C2
:10083000037A012B02D0022B11D106E06B461A700D
:1008400002690292828A9A8109E001236A46137042
:100850008289C389D31A6A46138183895381426886
:10086000019200688268684690471FBDF0B5144D3C
:100870008BB0E878FBF772FC00281FD005A8FBF7C7
:10088000A1FB142205A96846FAF756FC00246F461E
:1008900011E06000C619B088E978FBF76BFC00280E
:1008A00008D0B0882979FBF765FC002802D1B08810
:1008B00000F02AF8641C0098A042EAD80BB0F0BD02
:1008C000502000207CB50D490D4C03C901910090CA
:1008D00000226946A088FEF7B9FC0A4D07E00846E9
:1008E000FEF7E8FBA08000226946FEF7AFFCA18876
:1008F000A94201D01128F2D17CBD00006C18020081
:100900005C200020FFFF0000FEB506460125002404
:10091000FDF7BCF811281ED006DC002827D00628D9
:1009200031D008280AD12EE01A49411813D01A4AAA
:10093000D14203D13046FDF77FFD0CE00922694624
:100940000A708E8002903046FDF71AFA6946488098
:100950006846FCF7C9F92A46104D3046E978FBF79E
:100960001BFC224629793046FBF716FCFEBD05210B
:100970006846017001243046FDF702FA01466846D8
:1009800041808680E5E700253046FDF7F9F9FCF760
:10099000A9FFE0E7FECFFFFF01FCFFFF5020002092
:1009A000FFB50746806A81B0144600283DD0002577
:1009B00038462030009033E00C20B96A68430E18A6
:1009C000B088801CFE2802D90C2005B0F0BD22881A
:1009D0000299401C885420881622401C80B2208036
:1009E00002990A542088401C80B220800299411844
:1009F000308800F0B2FC2188401880B22080B28894
:100A0000002A0AD0B16800290FD0029BC018FAF75B
:100A100093FB2088B188401820806D1C0098EDB2AF
:100A2000007BA842C8D80020CFE70720CDE7000010
:100A300070B504461248134D018A2182818A618271
:100A40000078002818D06879002815D100F04EFDF4
:100A5000002811D028462030E0600220084920728A
:100A600004202031C870064800212030FBF770F8C0
:100A7000002804D1052000E00320A870002070BDEC
:100A8000642200200C20002070B504461148042682
:100A9000018B2182818B618200780F4D002816D056
:100AA0006879002813D100F021FD00280FD02846D6
:100AB0002030E06002202072064800212030C670FD
:100AC000FBF746F8002804D10620A87000E0AE70BD
